:020000040800F2
:100000003805002001010008A71A0008511800084F
:10001000A51A00084D020008DD1D000800000000C0
:10002000000000000000000000000000AB1A000803
:100030004F02000800000000A91A0008AD1A0008CD
:100040001B0100081B0100081B0100081B01000820
:100050001B0100081B0100081B0100081B01000810
:100060001B0100081B0100081B0100081B01000800
:100070001B0100081B0100081B0100081B010008F0
:100080001B0100081B0100086D0100081B0100088E
:100090001B0100081B0100081B0100081B010008D0
:1000A0001B0100082D1B00081B0100081B01000894
:1000B000A91B00081B0100081B0100081B01000808
:1000C0001B0100081B0100081B0100081B010008A0
:1000D0001B0100081B0100081B0100081B01000890
:1000E0001B0100081B0100081B010008DFF80CD0F1
:1000F00000F02AF8004800471D1E000838050020BF
:100100000648804706480047FEE7FEE7FEE7FEE7B1
:10011000FEE7FEE7FEE7FEE7FEE7FEE7291B000835
:10012000ED000008D2B201E000F8012B491EFBD21D
:1001300070470022F6E710B513460A4604461946F2
:10014000FFF7F0FF204610BD064C074D06E0E068C3
:1001500040F0010394E8070098471034AC42F6D30E
:10016000FFF7C8FF241F0008441F0008014800F0E3
:1001700061B900002C00002070B504460068816859
:10018000C943C90717D1816821F00101816000F0DE
:10019000B7FC05460AE000BF00F0B2FC401B022895
:1001A00004D920688068C043C00706D020688068F2
:1001B000C043C007F0D0002070BDA06A40F010001E
:1001C000A062E06A40F00100E062012070BD000022
:1001D000F8B500260446009600688168C943C9073F
:1001E0002DD0816841F001018160164816490068F0
:1001F000B0FBF1F000E0401E00900028FBD100F0C1
:100200007FFC054616E000BF00F07AFC401B022888
:1002100010D920688068C043C0070BD0A06A40F0A6
:100220001000A062E06A40F00100E06284F82460FF
:100230000120F8BD20688068C043C007E4D10020D9
:10024000F8BD00001C00002040420F00FEE7704790
:1002500072B6FEE7F8B500250446009590F8240034
:1002600001280BD0012084F824002046FFF784FFEA
:100270002046FFF7ADFF060002D050E00220F8BD97
:10028000A06A20F4885040F00200A062022000F032
:10029000D5FC25490968B1FBF0F0400000E0401EA4
:1002A00000900028FBD12068816841F0080181603E
:1002B00000F026FC074608E000F022FCC01B0A28DC
:1002C00003D920688068000715D42068806800077B
:1002D000F2D42068816841F00401816000F010FCD4
:1002E000074612E000F00CFCC01B0A280DD920685C
:1002F0008068400709D5A06A20F0020040F0100095
:10030000A06284F824500120F8BD2068806840076E
:10031000E8D4A06A20F0020040F00100A06284F856
:1003200024503046F8BD00001C000020704700003B
:10033000F8B50024009490F824202546012A12D014
:10034000012280F824204A681F23072A0DD206685C
:10035000776B521E02EB820293409F430B689340DF
:100360001F43776319E00220F8BD06680D2A0AD200
:10037000376BD21F02EB820293409F430B6893407E
:100380001F43376309E0F76A0D3A02EB820293409C
:100390009F430B6893401F43F7620A680723066870
:1003A0000A2A0AD3F7680A3A02EB420293409F43B3
:1003B0008B6893401F43F76008E0376902EB420205
:1003C00093409F438B6893401F4337610A68102A0C
:1003D00001D0112A20D1124B02689A4217D193689A
:1003E0001B0219D4936843F4000393600968102931
:1003F00012D10C490C4A0968B1FBF2F101EB810101
:10040000490000E0491E00910029FBD104E0816A07
:1004100041F020018162012480F824502046F8BD7B
:10042000002401401C00002040420F00704700687B
:10043000C06C704770B50446006806684568A90638
:1004400025D5B10723D5A16AC90603D4A16A41F411
:100450000071A1628168C1F34241072910D1217B5B
:1004600071B9416821F020014160A06A20F48070D8
:10047000A062A06AC00403D4A06A40F00100A06298
:100480002046FFF7D3FF21686FF0120008602806AE
:100490002ED570072CD5A06AC00603D4A06A40F4FC
:1004A0000050A06220688168C1F30231072909D099
:1004B0004168490515D48168C1F34241072910D12B
:1004C000217B71B9416821F080014160A06A20F46C
:1004D0008050A062A06AC00503D4A06A40F0010069
:1004E000A0622046FFF722FF21686FF00C00086031
:1004F00068060CD5F0070AD0A06A40F48030A062EC
:10050000204600F093F821686FF00100086070BD8C
:100510002DE9F0414FF0000704003D467ED0A06A6F
:10052000002628B9E66284F82460204600F080F8AE
:100530002046FFF721FEA16AC90600D420B1A06AB7
:1005400040F01000A06269E0A16A21F4885141F0F6
:100550000201A1626268E169237B0A4347EA430121
:100560000A43A1684FF48077B94209D0012907D026
:100570005FF0000194F814C0BCF1010F02D00AE052
:100580003946F7E7F3B1A36A43F02003A362E36AB5
:1005900043F00103E3622368D3F804C02CF4694CF0
:1005A0004CEA010CC3F804C021688B68DFF870C006
:1005B00003EA0C0313438B60A168B9420BD00129F5
:1005C00009D00CE0DFF85CC0A3690CEB43330B43AC
:1005D00043F40061DFE7218A0D05A5F58015216848
:1005E000CB6A23F470032B43CB62216889680E4BDE
:1005F0001940914208D1E662A16A21F0020141F05E
:100600000101A162BDE8F081A06A20F0020040F083
:100610001000A062E06A40F00100E0620120F1E712
:10062000FDF7E1FF00E0FFFFFE0E1FFF7047000037
:1006300010B586B0002100910191029103910068EC
:10064000194988422ED11948816941F400718161AC
:10065000816901F400710491816941F004018161B3
:10066000816901F004010491816941F0080181610F
:100670008069032400F008000490C020CDE9000444
:1006800069460B4800F042F9009469460948019414
:1006900000F03CF900221146122000F09DFA1220D1
:1006A00000F08CFA06B010BD00240140001002409A
:1006B00000080140000C01402DE9F84300270D46D9
:1006C0000446009700F01CFA804620688168C9053E
:1006D00008D5A06A40F02000A06284F824700120B0
:1006E000BDE8F8834168C90503D4C06A10F4700FEF
:1006F0002AD0022000F0A2FA3B490968B1FBF0F6CB
:100700002068036939490B424FEA61014FEAA1129F
:100710001FD1C3684FEA611C13EA0C0F19D103699A
:100720000B4225D1C068104222D1142023E0681C5E
:100730000AD02DB100F0E4F9A0EB0800A84203D9DB
:1007400020680068800725D5206800688007EED5FE
:100750002DE003690B4202D1C168114206D0026943
:1007600023490A4206D1C068084203D1542002E05E
:10077000292000E0FC204643009816E0681C11D0B8
:100780002DB100F0BDF9A0EB0800A8420AD90098ED
:10079000B04207D2A06A40F00400A06284F824703E
:1007A00003209DE70098401C0090B042E6D32168EA
:1007B0006FF012000860A06A40F40070A062206828
:1007C0008068C0F3424007280CD1207B50B9A06A52
:1007D00020F48070A062A06AC00403D4A06A40F034
:1007E0000100A06200207BE71C0000202449922425
:1007F0004992240070B5044690F8240001280DD0D9
:10080000012084F824002046FFF7E2FC02004FF0AC
:10081000000005D084F82400104670BD022070BD91
:10082000A16A40F20123994341F48071A1621F4DF6
:1008300023681F49AB4218D10E6816F4702F14D0EC
:10084000A66A46F48016A6620E68760505D5A66AE5
:1008500026F4005646F48056A662A66AF6040AD527
:10086000E66A26F00606E66206E0A66A26F4801628
:10087000A6625E68E9E7E06284F824006FF0020097
:10088000186020688368C3F34243072B05D1A84250
:1008900008D1096811F4702F04D0816841F48011E7
:1008A0008160B9E7816841F4A001F9E700280140BF
:1008B0000424014010B5044690F82400012807D014
:1008C000012084F824002046FFF756FC10B107E011
:1008D000022010BDA16A21F4885141F00101A162FA
:1008E000002184F8241010BD70B5044600F008F90A
:1008F0000546601C02D004480078044400F000F96A
:10090000401BA042FAD370BD100000202DE9F84F23
:10091000DFF8B8910024A9F1040B23460F2709F151
:10092000040AABF1040EC9E00125A5402A40AA4201
:100930007DD1674ED1F804C0ACEB0608B44532D087
:1009400014DCBCF1030F3AD009DCBCF1000F2AD053
:10095000BCF1010F1CD0BCF1020F31D11DE0BCF184
:10096000110F17D0BCF1120F2AD119E0B8F5881F6A
:1009700019D006DCB8F5803F15D0B8F5801F1FD11F
:1009800011E0B8F5001F0ED0B8F5041F18D10AE029
:10099000CB6815E0CB681B1D12E0CB6808330FE075
:1009A000CB680C330CE08B682BB1012B4FF00803A4
:1009B00003D0456104E0042302E0056100E0002368
:1009C000FF2A01D8064601E000F104064FEA84053B
:1009D00001D9A5F12005D6F8008007FA05FC28EA20
:1009E0000C0803FA05F548EA0508C6F800804D68CA
:1009F000ED0062D5374DAE6946F00106AE61AD69D6
:100A000024F0030605F001050095334D06EB050CB7
:100A1000DCF80850A607360F07FA06F825EA08059D
:100A2000DFF8B880404503D14FF0000817E044E0FC
:100A3000DFF8AC80404502D14FF001080FE0DFF84D
:100A4000A480404502D14FF0020808E0DFF898800A
:100A5000404502D14FF0030801E04FF0040808FAC6
:100A600006F848EA0508CCF808804D68D9F8006017
:100A7000ED024D4601D5164300E096432E604D68C9
:100A8000DAF80060AD02554601D5164300E0964302
:100A90002E604D68DBF80060AD035D4601D516435E
:100AA00000E096432E604D68DEF80060ED03754669
:100AB00001D5164300E096432E60641C0D682A465B
:100AC000E5407FF431AFBDE8F88F00000804014035
:100AD0000000111000100240000001400008014019
:100AE000000C0140001001400014014080680840E3
:100AF00000D0012070470AB1016170470904FBE78B
:100B0000014880687047000010000020024881689A
:100B1000027811448160704710000020074810B52A
:100B2000016841F010010160032000F075F80F200A
:100B300000F006F800F024F8002010BD002002406C
:100B400070B50D4D04464FF47A712878B1FBF0F082
:100B50000A490968B1FBF0F000F0A4FB48B9102C79
:100B600007D200222146501E00F036F800206C60AB
:100B700070BD012070BD0000100000201C0000208E
:100B80000C4808B5816941F001018161816901F07A
:100B900001010091C16941F08051C161C06900F05B
:100BA000805000900448416821F0E06141F00071FC
:100BB000416008BD0010024000000140002809DB30
:100BC00000F01F02012191404009800000F1E02067
:100BD000C0F8001170470000F0B40E4B1B680C46C3
:100BE000C3F30223C3F10705042D00D90425191D01
:100BF000072901D2002300E0DB1E012606FA05F1D9
:100C0000491E214099409E40761E16403143F0BC5B
:100C100001F0E5B80CED00E0064900F007020868B5
:100C20004FF6FF03184040EA0220034A10430860D1
:100C3000704700000CED00E00000FA0510B5014619
:100C40000020234C012922D0022939D010291DD19E
:100C500061682268D20119D51E48C1F38342C903D5
:100C6000805C0AD561681B4AC1F34041921E515C09
:100C7000194AB2FBF1F1484301E018494843616861
:100C8000490203D440000321B0FBF1F010BD226AF9
:100C9000C2F30121012903D1920701D5C80310BD78
:100CA000022905D1626A920702D549F6404010BD7B
:100CB0000329FCD121688903F9D54FF2244010BDE6
:100CC00000F02AF96168C1F38131491C4900DBE772
:100CD00000100240FC1E000800127A0000093D00CE
:100CE0002DE9F84305460078354CC00754D0E0693B
:100CF0000026C00008D4E06940F08050E061E0695F
:100D0000012600F0805000902E480168C90512D4D9
:100D10000168804641F480710160FFF7F1FE0746EB
:100D200005E000BFFFF7ECFEC01B642823D8D8F80D
:100D30000000C005F6D5206A10F4407021D0A988C3
:100D400001F4407181421CD0206A1F49012220F425
:100D500040700A6000220A602062C00711D0FFF7CD
:100D6000CFFE074641F2883808E000BFFFF7C8FE13
:100D7000C11B414502D90320BDE8F883206A8007E2
:100D8000F4D5206A696820F44070084320621EB1DF
:100D9000E06920F08050E0612878800705D5606820
:100DA000A96820F44040084360602878C00605D553
:100DB0006068E96820F48000084360600020DBE799
:100DC0000010024000700040400442422DE9F0470C
:100DD0000F46050061D0434E306800F00700B8426E
:100DE00009D2306820F0070038433060306800F0E6
:100DF0000700B84251D128683B4C810712D5400703
:100E000003D5606840F4E06060602878000703D58F
:100E1000606840F4605060606068A96820F0F0008D
:100E2000084360602878C00728D06868012810D07F
:100E30002168022810D0890700292EDA616821F084
:100E4000030101436160FFF75BFE804641F2883990
:100E50000DE021688903EFE78901EDE7FFF750FE18
:100E6000A0EB0801494502D90320BDE8F08760687E
:100E7000696800F00C00B0EB810FEFD1306800F032
:100E80000700B8420BD9306820F0070038433060C3
:100E9000306800F00700B84201D00120E5E728786B
:100EA000400705D56068E96820F4E06008436060A9
:100EB0002878000706D56068296920F4605040EA68
:100EC000C100606000F038F86168084AC1F303119E
:100ED000515CC8400649086006480068FFF730FECC
:100EE0000020C2E700200240001002400C1F000852
:100EF0001C000020140000200448054900684968CF
:100F0000044AC1F30221515CC84070471C00002014
:100F1000001002401C1F0008044805490068496889
:100F2000044AC1F3C221515CC84070471C00002034
:100F3000001002401C1F00080E4A51680E4801F0C4
:100F40000C03042B11D0082B0FD10C48C1F38343A1
:100F5000C903C05C0AD55168084AC1F34041921EDA
:100F6000515C054A5043B0FBF1F0704704494843D7
:100F7000704700000010024000127A00EA1E0008CC
:100F800000093D002DE9F84F040070D02078C04DD5
:100F9000C00749D06868C0F38100012807D068689D
:100FA000C0F38100022809D16868C00306D528680B
:100FB000800339D560680028E7D035E06068B0F577
:100FC000803F0BD010B1B0F5A02F11D0286820F4CD
:100FD00080302860286820F4802002E0286840F4EF
:100FE00080302860606890B1FFF78AFD06460AE00D
:100FF000286840F480202860F0E700BFFFF780FDFC
:10100000801B642873D828688003F7D50CE0FFF7AD
:1010100077FD064605E000BFFFF772FD801B6428E0
:10102000F0D828688003F7D420789A4E80074FF0D4
:1010300001094FF0000839D5686810F00C0F07D08F
:101040006868C0F38100022809D16868C00306D42B
:101050002868800714D52069012808D110E020698C
:10106000B0B1C6F80090FFF74BFD074605E00AE176
:10107000FFF746FDC01B0228C4D828688007F7D5B3
:101080002868616920F0F80040EAC10028600DE09E
:10109000C6F80080FFF734FD074604E0FFF730FD97
:1010A000C01B022823D828688007F7D420780007BF
:1010B0002CD57948A169D9B1C0F80090FFF720FD7F
:1010C000074604E0FFF71CFDC01B02280FD8686A22
:1010D0008007F7D571484FF4FA510068B0FBF1F082
:1010E000009000BF0098411E0091FAD20EE080E00F
:1010F000C0F80080FFF704FD074604E0FFF700FD9D
:10110000C01B022875D8686A8007F7D4207840078A
:1011100060D5E8690027C00008D4E86940F0805035
:10112000E861E869012700F0805000905C480168A0
:10113000C90513D40168834641F480710160FFF74B
:10114000DFFC824606E000BFFFF7DAFCA0EB0A00F6
:1011500064284ED8DBF80000C005F5D5E06801280A
:101160000AD008B1052813D0286A20F001002862AF
:10117000286A20F0040002E0286A40F0010028629A
:10118000E06841F2883B98B1FFF7BAFC82460BE079
:10119000286A40F004002862EEE700BFFFF7B0FCC9
:1011A000A0EB0A0159455AD8286A8007F6D50CE009
:1011B000FFF7A6FC824605E0FFF7A2FCA0EB0A01C0
:1011C00059454CD8286A8007F6D41FB1E86920F049
:1011D0008050E861E06988B36968C1F38101022940
:1011E00044D00228C6F8608004D0FFF789FC04468A
:1011F00038E034E0FFF784FC074604E0FFF780FCAA
:10120000C01B02282BD828688001F7D4206AB0F5CB
:10121000803F05D16868A16820F400300843686009
:10122000D4E908010843696821F47411084368602F
:10123000C6F86090FFF764FC044606E025E000BFB6
:10124000FFF75EFC001B022809D828688001F7D54B
:101250001BE000BFFFF754FC001B022802D903204B
:10126000BDE8F88F28688001F4D40EE00128F7D09B
:101270006868226A00F48031914204D1616A00F406
:101280007010884201D00120EAE70020E8E7000062
:101290000010024000004242800442421C00002034
:1012A0000070004010B5401EB0F1807F01D30120D6
:1012B00010BD4FF0E02460610F21601700F08FFD3A
:1012C0000020A06107202061002010BD70477047FA
:1012D00070B590F83C20012A26D0012480F83C40CB
:1012E000022280F83D2003685A689D6822F070064B
:1012F0000A6832435A600D4B02689A4208D0B2F134
:10130000804F05D00A4B9A4202D00A4B9A4204D130
:10131000496825F080031943916080F83D40002121
:1013200080F83C10084670BD022070BD002C0140C2
:10133000000400400008004010B5040003D094F8F9
:101340003D0010B107E0012010BD002084F83C00F2
:10135000204600F01FF8022084F83D00211D20687F
:1013600000F038FC012084F8460084F83E0084F840
:101370003F0084F8400084F8410084F8420084F87B
:10138000430084F8440084F8450084F83D000020C0
:1013900010BD000008B5154A0168154891420ED1EC
:1013A000816941F4006181618069002200F400607C
:1013B000009011461920FFF70FFC192010E0B1F141
:1013C000804F11D1C16941F00101C161C0690022A2
:1013D00000F00100009011461C20FFF7FDFB1C20CF
:1013E000BDE80840FFF7EABB08BD0000002C014043
:1013F0000010024090F83D10012901D001207047F3
:10140000022180F83D100168CA6842F00102CA60FA
:1014100000680B49884208D0B0F1804F05D00949D7
:10142000884202D00849884204D1816801F007014E
:10143000062903D0016841F00101016000207047D6
:10144000002C0140000400400008004070B5044634
:1014500090F83C000025012817D0012684F83C6054
:10146000022084F83D002068826822F0770222F48E
:101470007F4282600868502838D00DDC20284FD089
:1014800005DC90B3102811D14AE0022070BD30284D
:1014900046D040280AD13BE060282FD070280DD0DC
:1014A000B0F5805F03D0B0F5005F12D0012584F85D
:1014B0003D60002084F83C00284670BDCB68D1E92F
:1014C0000121206800F0BCFB2068816841F07701B1
:1014D00009E0CB68D1E90121206800F0B1FB206868
:1014E000816841F480418160E1E719E0CA68496898
:1014F000206800F0B7FB5021206806E0CA68496800
:10150000206800F0C0FB6021206800F0A3FBCEE75C
:10151000CA684968206800F0A5FB40212068F4E70C
:10152000226801461046F0E7704770B5044600682F
:1015300001694FF00005C943890715D4C168C94343
:10154000890711D4E91E0161012020772068806994
:101550008007204602D0FFF7E7FF04E000F098F88C
:10156000204600F096F8257720680169C9434907AD
:1015700017D4C168C943490713D46FF0040101614E
:10158000022020772068806910F4407F204602D036
:10159000FFF7CAFF04E000F07BF8204600F079F87E
:1015A000257720680169C943090716D4C168C94372
:1015B000090712D46FF00801016104202077206828
:1015C000C0698007204602D0FFF7AEFF04E000F0BC
:1015D0005FF8204600F05DF8257720680169C9436F
:1015E000C90617D4C168C943C90613D46FF01001E6
:1015F0000161082020772068C06910F4407F2046F0
:1016000002D0FFF791FF04E000F042F8204600F01E
:1016100040F8257720680169C943C90708D1C16826
:10162000C943C90704D1891E0161204600F032F880
:1016300020680169C943090609D4C168C94309067C
:1016400005D46FF0800101612046FFF73FFE20685E
:101650000169C943490609D4C168C943490605D48B
:101660006FF040010161204600F015F82068016923
:10167000C94389060BD4C168C943890607D46FF0F2
:10168000200101612046BDE87040FFF720BE70BD1B
:10169000704770477047704770B5040004D094F8E5
:1016A0004100002510B106E0012070BD84F84050D3
:1016B000204600F023F8242084F841002068C16807
:1016C00021F40051C160204600F0F0FA2068016961
:1016D00021F4904101612068416921F02A014161B2
:1016E0002068C16841F40051C1606564202084F81D
:1016F000410084F842006563002070BD30B585B0BC
:1017000000240094019402940394006814498842D0
:1017100024D11448816941F480418161816901F4D7
:1017200080410491816941F00401816180690E4D1D
:1017300000F0040004904FF400700090022001902B
:101740000320039069462846FFF7E0F82815CDE905
:101750000004694628460294FFF7D8F805B030BD6A
:101760000038014000100240000801402DE9F84314
:10177000044690F841001F4616460D46202802D028
:101780000220BDE8F8837DB176B10020606421209D
:1017900084F84100FFF7B4F9A6848046E684A06887
:1017A000B0F5805F02D003E00120EAE7206910B1C4
:1017B0002E4600250EE000260CE08021204600F099
:1017C000D1FAA0B9AEB116F8010B21684860E08CDF
:1017D000401EE084E08C43464FF000020097002852
:1017E000EBD14FF04001204600F0BCFA30B10320AD
:1017F000C7E735F8020BC0F30800E6E7202084F8BD
:1018000041000020BDE7000010B500F009F8642099
:10181000FFF76AF80148408810BD00000000002072
:1018200010B5094C012211462046FFF764F92D201E
:10183000FFF75AF8002201212046FFF75CF903491F
:101840000020488010BD000000080140000000207A
:10185000FEE70000FEB500252248009501952049CD
:1018600002950160891581600573012404750426C1
:1018700006614FF460214560C0E90641FEF748FE6D
:1018800008B1FEF7E5FC06208DE8310069461548F1
:10189000FEF74EFD08B1FEF7DBFC072000900220AA
:1018A000019069460F48FEF743FD08B1FEF7D0FCF2
:1018B000082000900320019069460A48FEF738FD91
:1018C00008B1FEF7C5FC0920CDE9000669460548C8
:1018D000FEF72EFD002801D0FEF7BAFCFEBD000089
:1018E000002401402C0000202DE9F04186B00025A5
:1018F00027480095019502950395816941F01001F3
:101900008161816901F010010491816941F0200138
:101910008161816901F020010491816941F0040134
:101920008161816901F004010491816941F008013C
:1019300081618069174F00F008004FF40054049053
:10194000002221463846FFF7D6F8DFF84C80002207
:1019500001214046FFF7CFF8009401AA0124022696
:1019600082E8700069463846FEF7D0FF0094CDE962
:101970000145694640460394FEF7C8FF0096CDE94D
:10198000015469464046FEF7C1FF06B0BDE8F0814C
:1019900000100240001001400008014010B586B060
:1019A0000024184800940194029403940494144968
:1019B000059401604721C0E9011440F2E731C0E914
:1019C00003148021C0E90541FFF7B6FC08B1FEF71A
:1019D0003FFC4FF48050009069460A48FFF736FDFF
:1019E00008B1FEF735FC049404A906480594FFF7F6
:1019F0006FFC002801D0FEF72BFC06B010BD0000E4
:101A0000002C01405C00002010B586B00024164870
:101A1000009401940294039404944FF0804105943F
:101A2000C0E9001441F61F41C0E902418021046170
:101A30008161FFF781FC08B1FEF70AFC4FF480508A
:101A4000009069460848FFF701FD08B1FEF700FC69
:101A5000049404A904480594FFF73AFC002801D037
:101A6000FEF7F6FB06B010BDA40000200C4810B530
:101A70000A4901604FF4E1314160002181600C228C
:101A8000C160C0E904128161C161FFF705FE002851
:101A900003D0BDE81040FEF7DBBB10BD00380140AD
:101AA000EC000020FEE7FEE770477047FFF72EB816
:101AB00030B593B028216846FEF73BFB14210AA8F5
:101AC000FEF737FB002501200F95109511950104B5
:101AD00012958DE8230004904FF4E010CDE9081032
:101AE000022407946846FFF74DFA08B172B6FEE784
:101AF0000AA90F2081E831004FF48060CDE90D057F
:101B000002210AA8FFF762F908B172B6FEE74FF4A6
:101B1000004011900F940FA8FFF7E2F8002801D0C1
:101B200072B6FEE713B030BD7047000010B5184C18
:101B30002088B0F5FA6F01D2401C01E040F2E93094
:101B400020801448FFF7F1FC20883221B0FBF1F22D
:101B500001FB120000281AD10F4B104933F8102056
:101B6000140A01F8104001EB4004401C6270042884
:101B7000F4DB0B484FF6FF730088020A0A724872C2
:101B8000BDE810400A2205490648FFF7EFBD10BD29
:101B9000000000205C000020060000202000002043
:101BA00002000020EC00002010B502210648FEF7DC
:101BB0009DFF012803D105480188491C0180BDE82B
:101BC00010400348FFF7B1BC0008014002000020AC
:101BD000A4000020F0B50268164B174C174D4FF0CB
:101BE0008047984205D0B84203D0A04201D0A84215
:101BF00003D122F070064A683243984205D0B842B9
:101C000003D0A04201D0A84203D122F44074CA6894
:101C100022434C6922F08002224302608A68C26239
:101C20000A688262984201D1096901630121416118
:101C3000F0BD0000002C01400004004000080040FE
:101C400010B5846842EA032224F47F440A43224305
:101C5000826010BD826822F070020A4342F00701E0
:101C60008160704710B5036A046A24F001040462BD
:101C7000846924F0F00444EA021423F00A020A43BF
:101C80008461026210BD10B5036A046A24F0100476
:101C90000462846923F0A00324F4704444EA02320D
:101CA00043EA01118261016210BD000070B5044673
:101CB00000680169E26821F4405111430161216922
:101CC000A0680843616908432168CA6841F20C634F
:101CD0009A430243CA6020684169A26921F44071B5
:101CE000114341611E492068884202D1FFF714F96F
:101CF00001E0FFF701F900EBC00101EB00126068A1
:101D000064218000B2FBF0F3B3FBF1F36FF018062F
:101D10007343B2FBF0F5B2FBF0F605EB830532231B
:101D200003EB0515B5FBF1F5B6FBF1F605F0F00593
:101D300005EB0615B2FBF0F6B2FBF0F0B0FBF1F0EC
:101D40006FF01802504306EB800003EB0010B0FB6D
:101D5000F1F0216800F00F002844886070BD000099
:101D6000003801402DE9F041984617460E460446DA
:101D7000069D27E0681C25D02DB1FEF7C1FEA0EB23
:101D80000800A8421ED920680C3050E8001F21F43A
:101D9000D07140E80012002AF5D12068143050E8D4
:101DA000001F21F0010140E80012002AF5D1202097
:101DB00084F8410084F84200002084F840000320A9
:101DC000BDE8F0812068006836EA000004D00020F9
:101DD000B842CFD00020F3E70120F9E7FEE709077A
:101DE000090E002804DB00F1E02080F800147047A1
:101DF00000F00F0000F1E02080F8141D704702E0B1
:101E000008C8121F08C1002AFAD170477047002085
:101E100001E001C1121F002AFBD17047FEF77EFED0
:101E2000FFF746FEFFF760FDFFF714FDFFF7B6FD75
:101E3000FFF71CFEFFF7E8FD2548FFF7DBFA254812
:101E4000FFF7D8FA2448FEF705FA244DDFF8909002
:101E50004FF47A774FF400582888B84208D8002207
:101E600001212048FEF747FE0122414648462BE06B
:101E70001A4E00244FF6FF7AB61D1748FEF7BAFC3B
:101E800051461548FEF718FC1348FEF7D0FA26F81D
:101E90001400641C042CF0DB0F48FEF70BFDFFF769
:101EA000B3FCA8804FF4967A5046FEF71DFD002241
:101EB000444641464E464846FEF71DFE5046FEF754
:101EC00013FD012221463046FEF715FEC4E700004F
:101ED0005C000020A40000202C0000200000002056
:101EE000001001400008014001020203040506073A
:101EF00008090A0B0C0D0E0F101001020203040555
:101F0000060708090A0B0C0D0E0F10100000000048
:101F10000000000001020304060708090000000099
:101F200001020304441F00080000002020000000FC
:101F3000FE1D0008641F0008200000201805000096
:101F40000E1E00080000000000000000000000005D
:101F50000000000001000000100000000000000070
:041F60000024F40065
:04000005080000ED02
:00000001FF
